{
  "contractName": "AXCCrowdsale",
  "abi": [
    {
      "constant": true,
      "inputs": [],
      "name": "hasClosed",
      "outputs": [
        {
          "name": "",
          "type": "bool"
        }
      ],
      "payable": false,
      "stateMutability": "view",
      "type": "function"
    },
    {
      "constant": true,
      "inputs": [],
      "name": "rate",
      "outputs": [
        {
          "name": "",
          "type": "uint256"
        }
      ],
      "payable": false,
      "stateMutability": "view",
      "type": "function"
    },
    {
      "constant": true,
      "inputs": [],
      "name": "cap",
      "outputs": [
        {
          "name": "",
          "type": "uint256"
        }
      ],
      "payable": false,
      "stateMutability": "view",
      "type": "function"
    },
    {
      "constant": true,
      "inputs": [],
      "name": "goal",
      "outputs": [
        {
          "name": "",
          "type": "uint256"
        }
      ],
      "payable": false,
      "stateMutability": "view",
      "type": "function"
    },
    {
      "constant": true,
      "inputs": [],
      "name": "weiRaised",
      "outputs": [
        {
          "name": "",
          "type": "uint256"
        }
      ],
      "payable": false,
      "stateMutability": "view",
      "type": "function"
    },
    {
      "constant": true,
      "inputs": [],
      "name": "closingTime",
      "outputs": [
        {
          "name": "",
          "type": "uint256"
        }
      ],
      "payable": false,
      "stateMutability": "view",
      "type": "function"
    },
    {
      "constant": false,
      "inputs": [],
      "name": "finalize",
      "outputs": [],
      "payable": false,
      "stateMutability": "nonpayable",
      "type": "function"
    },
    {
      "constant": true,
      "inputs": [],
      "name": "capReached",
      "outputs": [
        {
          "name": "",
          "type": "bool"
        }
      ],
      "payable": false,
      "stateMutability": "view",
      "type": "function"
    },
    {
      "constant": true,
      "inputs": [],
      "name": "wallet",
      "outputs": [
        {
          "name": "",
          "type": "address"
        }
      ],
      "payable": false,
      "stateMutability": "view",
      "type": "function"
    },
    {
      "constant": true,
      "inputs": [],
      "name": "goalReached",
      "outputs": [
        {
          "name": "",
          "type": "bool"
        }
      ],
      "payable": false,
      "stateMutability": "view",
      "type": "function"
    },
    {
      "constant": true,
      "inputs": [],
      "name": "isFinalized",
      "outputs": [
        {
          "name": "",
          "type": "bool"
        }
      ],
      "payable": false,
      "stateMutability": "view",
      "type": "function"
    },
    {
      "constant": true,
      "inputs": [],
      "name": "owner",
      "outputs": [
        {
          "name": "",
          "type": "address"
        }
      ],
      "payable": false,
      "stateMutability": "view",
      "type": "function"
    },
    {
      "constant": false,
      "inputs": [],
      "name": "claimRefund",
      "outputs": [],
      "payable": false,
      "stateMutability": "nonpayable",
      "type": "function"
    },
    {
      "constant": true,
      "inputs": [],
      "name": "openingTime",
      "outputs": [
        {
          "name": "",
          "type": "uint256"
        }
      ],
      "payable": false,
      "stateMutability": "view",
      "type": "function"
    },
    {
      "constant": false,
      "inputs": [
        {
          "name": "_beneficiary",
          "type": "address"
        }
      ],
      "name": "buyTokens",
      "outputs": [],
      "payable": true,
      "stateMutability": "payable",
      "type": "function"
    },
    {
      "constant": false,
      "inputs": [
        {
          "name": "newOwner",
          "type": "address"
        }
      ],
      "name": "transferOwnership",
      "outputs": [],
      "payable": false,
      "stateMutability": "nonpayable",
      "type": "function"
    },
    {
      "constant": true,
      "inputs": [],
      "name": "vault",
      "outputs": [
        {
          "name": "",
          "type": "address"
        }
      ],
      "payable": false,
      "stateMutability": "view",
      "type": "function"
    },
    {
      "constant": true,
      "inputs": [],
      "name": "token",
      "outputs": [
        {
          "name": "",
          "type": "address"
        }
      ],
      "payable": false,
      "stateMutability": "view",
      "type": "function"
    },
    {
      "inputs": [
        {
          "name": "_openingTime",
          "type": "uint256"
        },
        {
          "name": "_closingTime",
          "type": "uint256"
        },
        {
          "name": "_rate",
          "type": "uint256"
        },
        {
          "name": "_goal",
          "type": "uint256"
        },
        {
          "name": "_wallet",
          "type": "address"
        },
        {
          "name": "_cap",
          "type": "uint256"
        },
        {
          "name": "_token",
          "type": "address"
        }
      ],
      "payable": false,
      "stateMutability": "nonpayable",
      "type": "constructor"
    },
    {
      "payable": true,
      "stateMutability": "payable",
      "type": "fallback"
    },
    {
      "anonymous": false,
      "inputs": [],
      "name": "Finalized",
      "type": "event"
    },
    {
      "anonymous": false,
      "inputs": [
        {
          "indexed": true,
          "name": "previousOwner",
          "type": "address"
        },
        {
          "indexed": true,
          "name": "newOwner",
          "type": "address"
        }
      ],
      "name": "OwnershipTransferred",
      "type": "event"
    },
    {
      "anonymous": false,
      "inputs": [
        {
          "indexed": true,
          "name": "purchaser",
          "type": "address"
        },
        {
          "indexed": true,
          "name": "beneficiary",
          "type": "address"
        },
        {
          "indexed": false,
          "name": "value",
          "type": "uint256"
        },
        {
          "indexed": false,
          "name": "amount",
          "type": "uint256"
        }
      ],
      "name": "TokenPurchase",
      "type": "event"
    }
  ],
  "bytecode": "0x60606040526007805460a060020a60ff0219169055341561001f57600080fd5b60405160e0806110c18339810160405280805191906020018051919060200180519190602001805191906020018051919060200180519190602001805191508490508787848887866000831161007457600080fd5b600160a060020a038216151561008957600080fd5b600160a060020a038116151561009e57600080fd5b60029290925560018054600160a060020a03928316600160a060020a0319918216179091556000805492909316911617815581116100db57600080fd5b600455428210156100eb57600080fd5b818110156100f857600080fd5b60059190915560065560078054600160a060020a03191633600160a060020a03161790556000811161012957600080fd5b600154600160a060020a031661013d61019f565b600160a060020a039091168152602001604051809103906000f080151561016357600080fd5b60098054600160a060020a031916600160a060020a03929092169190911790556008558184111561019357600080fd5b505050505050506101af565b60405161060c80610ab583390190565b6108f7806101be6000396000f3006060604052600436106100e25763ffffffff60e060020a6000350416631515bc2b81146100ed5780632c4e722e14610114578063355274ea14610139578063401938831461014c5780634042b66f1461015f5780634b6753bc146101725780634bb278f3146101855780634f93594514610198578063521eb273146101ab5780637d3d6522146101da5780638d4e4083146101ed5780638da5cb5b14610200578063b5545a3c14610213578063b7a8807c14610226578063ec8ac4d814610239578063f2fde38b1461024d578063fbfa77cf1461026c578063fc0c546a1461027f575b6100eb33610292565b005b34156100f857600080fd5b61010061033a565b604051901515815260200160405180910390f35b341561011f57600080fd5b610127610342565b60405190815260200160405180910390f35b341561014457600080fd5b610127610348565b341561015757600080fd5b61012761034e565b341561016a57600080fd5b610127610354565b341561017d57600080fd5b61012761035a565b341561019057600080fd5b6100eb610360565b34156101a357600080fd5b610100610421565b34156101b657600080fd5b6101be61042c565b604051600160a060020a03909116815260200160405180910390f35b34156101e557600080fd5b61010061043b565b34156101f857600080fd5b610100610446565b341561020b57600080fd5b6101be610467565b341561021e57600080fd5b6100eb610476565b341561023157600080fd5b61012761050e565b6100eb600160a060020a0360043516610292565b341561025857600080fd5b6100eb600160a060020a0360043516610514565b341561027757600080fd5b6101be6105af565b341561028a57600080fd5b6101be6105be565b34600061029f83836105cd565b6102a8826105fa565b6003549091506102be908363ffffffff61069e16565b6003556102cb83826106b8565b82600160a060020a031633600160a060020a03167f623b3804fa71d67900d064613da8f94b9617215ee90799290593e1745087ad18848460405191825260208201526040908101905180910390a361032383836105f6565b61032b6106c2565b61033583836105f6565b505050565b600654421190565b60025481565b60045481565b60085481565b60035481565b60065481565b60075433600160a060020a0390811691161461037b57600080fd5b60075474010000000000000000000000000000000000000000900460ff16156103a357600080fd5b6103ab61033a565b15156103b657600080fd5b6103be610725565b7f6823b073d48d6e3a7d385eeb601452d680e74bb46afe3255a7d778f3a9b1768160405160405180910390a16007805474ff0000000000000000000000000000000000000000191674010000000000000000000000000000000000000000179055565b600454600354101590565b600154600160a060020a031681565b600854600354101590565b60075474010000000000000000000000000000000000000000900460ff1681565b600754600160a060020a031681565b60075474010000000000000000000000000000000000000000900460ff16151561049f57600080fd5b6104a761043b565b156104b157600080fd5b600954600160a060020a031663fa89401a3360405160e060020a63ffffffff8416028152600160a060020a039091166004820152602401600060405180830381600087803b151561050157600080fd5b5af1151561033557600080fd5b60055481565b60075433600160a060020a0390811691161461052f57600080fd5b600160a060020a038116151561054457600080fd5b600754600160a060020a0380831691167f8be0079c531659141344cd1fd0a4f28419497f9722a3daafe3b4186f6b6457e060405160405180910390a36007805473ffffffffffffffffffffffffffffffffffffffff1916600160a060020a0392909216919091179055565b600954600160a060020a031681565b600054600160a060020a031681565b60055442101580156105e157506006544211155b15156105ec57600080fd5b6105f682826107dc565b5050565b600554600090610384810190610708810190610a8c810190610e1001428490101561062a57612ee0600255610680565b834211801561063857508242105b1561064857612cec600255610680565b824211801561065657508142105b1561066657612af8600255610680565b814211801561067457508042105b15610680576129046002555b60025461069490879063ffffffff61080716565b9695505050505050565b6000828201838110156106ad57fe5b8091505b5092915050565b6105f68282610832565b600954600160a060020a031663f340fa01343360405160e060020a63ffffffff8516028152600160a060020a0390911660048201526024016000604051808303818588803b151561071257600080fd5b5af1151561071f57600080fd5b50505050565b61072d61043b565b1561078657600954600160a060020a03166343d726d66040518163ffffffff1660e060020a028152600401600060405180830381600087803b151561077157600080fd5b5af1151561077e57600080fd5b5050506107d6565b600954600160a060020a0316638c52dc416040518163ffffffff1660e060020a028152600401600060405180830381600087803b15156107c557600080fd5b5af115156107d257600080fd5b5050505b6107da5b565b6107e682826108aa565b6004546003546107fc908363ffffffff61069e16565b11156105f657600080fd5b60008083151561081a57600091506106b1565b5082820282848281151561082a57fe5b04146106ad57fe5b600054600160a060020a03166340c10f19838360405160e060020a63ffffffff8516028152600160a060020a0390921660048301526024820152604401602060405180830381600087803b151561088857600080fd5b5af1151561089557600080fd5b5050506040518051905015156105f657600080fd5b600160a060020a03821615156108bf57600080fd5b8015156105f657600080fd00a165627a7a72305820b8a78175c5bfeaa6d5eb9df7d7bb0457df3cf07bea6ed81146dbf10256eb35e000296060604052341561000f57600080fd5b60405160208061060c8339810160405280805160008054600160a060020a03191633600160a060020a039081169190911790915590925082161515905061005557600080fd5b60028054600160a060020a031916600160a060020a03929092169190911760a060020a60ff021916905561057e8061008e6000396000f3006060604052600436106100985763ffffffff7c010000000000000000000000000000000000000000000000000000000060003504166343d726d6811461009d578063521eb273146100b25780638c52dc41146100e15780638da5cb5b146100f4578063c19d93fb14610107578063cb13cddb1461013e578063f2fde38b1461016f578063f340fa011461018e578063fa89401a146101a2575b600080fd5b34156100a857600080fd5b6100b06101c1565b005b34156100bd57600080fd5b6100c561029c565b604051600160a060020a03909116815260200160405180910390f35b34156100ec57600080fd5b6100b06102ab565b34156100ff57600080fd5b6100c561033c565b341561011257600080fd5b61011a61034b565b6040518082600281111561012a57fe5b60ff16815260200191505060405180910390f35b341561014957600080fd5b61015d600160a060020a036004351661035b565b60405190815260200160405180910390f35b341561017a57600080fd5b6100b0600160a060020a036004351661036d565b6100b0600160a060020a0360043516610408565b34156101ad57600080fd5b6100b0600160a060020a036004351661048c565b60005433600160a060020a039081169116146101dc57600080fd5b60006002805460a060020a900460ff16908111156101f657fe5b1461020057600080fd5b6002805474ff00000000000000000000000000000000000000001916740200000000000000000000000000000000000000001790557f1cdde67b72a90f19919ac732a437ac2f7a10fc128d28c2a6e525d89ce5cd9d3a60405160405180910390a1600254600160a060020a039081169030163180156108fc0290604051600060405180830381858888f19350505050151561029a57600080fd5b565b600254600160a060020a031681565b60005433600160a060020a039081169116146102c657600080fd5b60006002805460a060020a900460ff16908111156102e057fe5b146102ea57600080fd5b6002805474ff0000000000000000000000000000000000000000191660a060020a1790557f599d8e5a83cffb867d051598c4d70e805d59802d8081c1c7d6dffc5b6aca2b8960405160405180910390a1565b600054600160a060020a031681565b60025460a060020a900460ff1681565b60016020526000908152604090205481565b60005433600160a060020a0390811691161461038857600080fd5b600160a060020a038116151561039d57600080fd5b600054600160a060020a0380831691167f8be0079c531659141344cd1fd0a4f28419497f9722a3daafe3b4186f6b6457e060405160405180910390a36000805473ffffffffffffffffffffffffffffffffffffffff1916600160a060020a0392909216919091179055565b60005433600160a060020a0390811691161461042357600080fd5b60006002805460a060020a900460ff169081111561043d57fe5b1461044757600080fd5b600160a060020a038116600090815260016020526040902054610470903463ffffffff61053c16565b600160a060020a03909116600090815260016020526040902055565b600060016002805460a060020a900460ff16908111156104a857fe5b146104b257600080fd5b50600160a060020a038116600081815260016020526040808220805492905590919082156108fc0290839051600060405180830381858888f1935050505015156104fb57600080fd5b81600160a060020a03167fd7dee2702d63ad89917b6a4da9981c90c4d24f8c2bdfd64c604ecae57d8d06518260405190815260200160405180910390a25050565b60008282018381101561054b57fe5b93925050505600a165627a7a72305820df47823a0e39486806747231e35e14d7a59c983510f8e97ead747f7e312efe420029",
  "source": "pragma solidity ^0.4.18;\nimport \"./AXCToken.sol\";\nimport \"zeppelin-solidity/contracts/crowdsale/validation/TimedCrowdsale.sol\";\nimport \"zeppelin-solidity/contracts/crowdsale/validation/CappedCrowdsale.sol\";\nimport \"zeppelin-solidity/contracts/crowdsale/distribution/RefundableCrowdsale.sol\";\nimport \"zeppelin-solidity/contracts/crowdsale/emission/MintedCrowdsale.sol\";\nimport \"zeppelin-solidity/contracts/token/ERC20/MintableToken.sol\";\ncontract AXCCrowdsale is CappedCrowdsale, MintedCrowdsale, TimedCrowdsale, RefundableCrowdsale {\n  function AXCCrowdsale(\n    uint256 _openingTime,\n    uint256 _closingTime,\n    uint256 _rate,\n    uint256 _goal,\n    address _wallet,\n    uint256 _cap,\n    MintableToken _token\n  )\n  public\n  Crowdsale(_rate, _wallet, _token)\n  CappedCrowdsale(_cap)\n  RefundableCrowdsale(_goal)\n  TimedCrowdsale(_openingTime, _closingTime)\n  {\n    require(_goal <= _cap);\n  }\n  //override Crowdsale.sol in zeppelin-solidity.\n  function _getTokenAmount(uint256 _weiAmount) internal view returns (uint256) {\n    uint256 periodOfPreSale = openingTime + 15 minutes;\n    uint256 periodOfWeek1 = openingTime + 30 minutes;\n    uint256 periodOfWeek2 = openingTime + 45 minutes;\n    uint256 periodOfWeek3 = openingTime + 60 minutes;\n    if(now < periodOfPreSale){\n        rate = 12000;\n    }else if (now > periodOfPreSale && now < periodOfWeek1){\n        rate = 11500;\n    }else if (now > periodOfWeek1 && now < periodOfWeek2){\n        rate = 11000;\n    }else if (now > periodOfWeek2 && now < periodOfWeek3){\n        rate = 10500;\n    }\n    return _weiAmount.mul(rate);\n  }\n}\n",
  "sourcePath": "/Users/satomikennta/Desktop/arteryx-tokens/contracts/AXCCrowdSale.sol",
  "compiler": {
    "name": "solc",
    "version": "0.4.21+commit.dfe3193c.Emscripten.clang"
  },
  "schemaVersion": "2.0.0",
  "updatedAt": "2018-05-15T07:28:39.988Z"
}