{
  "contractName": "AXCToken",
  "abi": [
    {
      "constant": true,
      "inputs": [],
      "name": "mintingFinished",
      "outputs": [
        {
          "name": "",
          "type": "bool"
        }
      ],
      "payable": false,
      "stateMutability": "view",
      "type": "function"
    },
    {
      "constant": true,
      "inputs": [],
      "name": "name",
      "outputs": [
        {
          "name": "",
          "type": "string"
        }
      ],
      "payable": false,
      "stateMutability": "view",
      "type": "function"
    },
    {
      "constant": false,
      "inputs": [
        {
          "name": "_spender",
          "type": "address"
        },
        {
          "name": "_value",
          "type": "uint256"
        }
      ],
      "name": "approve",
      "outputs": [
        {
          "name": "",
          "type": "bool"
        }
      ],
      "payable": false,
      "stateMutability": "nonpayable",
      "type": "function"
    },
    {
      "constant": true,
      "inputs": [],
      "name": "totalSupply",
      "outputs": [
        {
          "name": "",
          "type": "uint256"
        }
      ],
      "payable": false,
      "stateMutability": "view",
      "type": "function"
    },
    {
      "constant": false,
      "inputs": [
        {
          "name": "_from",
          "type": "address"
        },
        {
          "name": "_to",
          "type": "address"
        },
        {
          "name": "_value",
          "type": "uint256"
        }
      ],
      "name": "transferFrom",
      "outputs": [
        {
          "name": "",
          "type": "bool"
        }
      ],
      "payable": false,
      "stateMutability": "nonpayable",
      "type": "function"
    },
    {
      "constant": true,
      "inputs": [],
      "name": "decimals",
      "outputs": [
        {
          "name": "",
          "type": "uint8"
        }
      ],
      "payable": false,
      "stateMutability": "view",
      "type": "function"
    },
    {
      "constant": false,
      "inputs": [],
      "name": "unpause",
      "outputs": [],
      "payable": false,
      "stateMutability": "nonpayable",
      "type": "function"
    },
    {
      "constant": false,
      "inputs": [
        {
          "name": "_to",
          "type": "address"
        },
        {
          "name": "_amount",
          "type": "uint256"
        }
      ],
      "name": "mint",
      "outputs": [
        {
          "name": "",
          "type": "bool"
        }
      ],
      "payable": false,
      "stateMutability": "nonpayable",
      "type": "function"
    },
    {
      "constant": false,
      "inputs": [
        {
          "name": "_value",
          "type": "uint256"
        }
      ],
      "name": "burn",
      "outputs": [],
      "payable": false,
      "stateMutability": "nonpayable",
      "type": "function"
    },
    {
      "constant": true,
      "inputs": [],
      "name": "paused",
      "outputs": [
        {
          "name": "",
          "type": "bool"
        }
      ],
      "payable": false,
      "stateMutability": "view",
      "type": "function"
    },
    {
      "constant": false,
      "inputs": [
        {
          "name": "_spender",
          "type": "address"
        },
        {
          "name": "_subtractedValue",
          "type": "uint256"
        }
      ],
      "name": "decreaseApproval",
      "outputs": [
        {
          "name": "success",
          "type": "bool"
        }
      ],
      "payable": false,
      "stateMutability": "nonpayable",
      "type": "function"
    },
    {
      "constant": true,
      "inputs": [
        {
          "name": "_owner",
          "type": "address"
        }
      ],
      "name": "balanceOf",
      "outputs": [
        {
          "name": "balance",
          "type": "uint256"
        }
      ],
      "payable": false,
      "stateMutability": "view",
      "type": "function"
    },
    {
      "constant": false,
      "inputs": [],
      "name": "finishMinting",
      "outputs": [
        {
          "name": "",
          "type": "bool"
        }
      ],
      "payable": false,
      "stateMutability": "nonpayable",
      "type": "function"
    },
    {
      "constant": false,
      "inputs": [],
      "name": "pause",
      "outputs": [],
      "payable": false,
      "stateMutability": "nonpayable",
      "type": "function"
    },
    {
      "constant": true,
      "inputs": [],
      "name": "owner",
      "outputs": [
        {
          "name": "",
          "type": "address"
        }
      ],
      "payable": false,
      "stateMutability": "view",
      "type": "function"
    },
    {
      "constant": true,
      "inputs": [],
      "name": "symbol",
      "outputs": [
        {
          "name": "",
          "type": "string"
        }
      ],
      "payable": false,
      "stateMutability": "view",
      "type": "function"
    },
    {
      "constant": false,
      "inputs": [
        {
          "name": "_to",
          "type": "address"
        },
        {
          "name": "_value",
          "type": "uint256"
        }
      ],
      "name": "transfer",
      "outputs": [
        {
          "name": "",
          "type": "bool"
        }
      ],
      "payable": false,
      "stateMutability": "nonpayable",
      "type": "function"
    },
    {
      "constant": false,
      "inputs": [
        {
          "name": "_spender",
          "type": "address"
        },
        {
          "name": "_addedValue",
          "type": "uint256"
        }
      ],
      "name": "increaseApproval",
      "outputs": [
        {
          "name": "success",
          "type": "bool"
        }
      ],
      "payable": false,
      "stateMutability": "nonpayable",
      "type": "function"
    },
    {
      "constant": true,
      "inputs": [
        {
          "name": "_owner",
          "type": "address"
        },
        {
          "name": "_spender",
          "type": "address"
        }
      ],
      "name": "allowance",
      "outputs": [
        {
          "name": "",
          "type": "uint256"
        }
      ],
      "payable": false,
      "stateMutability": "view",
      "type": "function"
    },
    {
      "constant": false,
      "inputs": [
        {
          "name": "newOwner",
          "type": "address"
        }
      ],
      "name": "transferOwnership",
      "outputs": [],
      "payable": false,
      "stateMutability": "nonpayable",
      "type": "function"
    },
    {
      "anonymous": false,
      "inputs": [],
      "name": "Pause",
      "type": "event"
    },
    {
      "anonymous": false,
      "inputs": [],
      "name": "Unpause",
      "type": "event"
    },
    {
      "anonymous": false,
      "inputs": [
        {
          "indexed": true,
          "name": "burner",
          "type": "address"
        },
        {
          "indexed": false,
          "name": "value",
          "type": "uint256"
        }
      ],
      "name": "Burn",
      "type": "event"
    },
    {
      "anonymous": false,
      "inputs": [
        {
          "indexed": true,
          "name": "to",
          "type": "address"
        },
        {
          "indexed": false,
          "name": "amount",
          "type": "uint256"
        }
      ],
      "name": "Mint",
      "type": "event"
    },
    {
      "anonymous": false,
      "inputs": [],
      "name": "MintFinished",
      "type": "event"
    },
    {
      "anonymous": false,
      "inputs": [
        {
          "indexed": true,
          "name": "previousOwner",
          "type": "address"
        },
        {
          "indexed": true,
          "name": "newOwner",
          "type": "address"
        }
      ],
      "name": "OwnershipTransferred",
      "type": "event"
    },
    {
      "anonymous": false,
      "inputs": [
        {
          "indexed": true,
          "name": "owner",
          "type": "address"
        },
        {
          "indexed": true,
          "name": "spender",
          "type": "address"
        },
        {
          "indexed": false,
          "name": "value",
          "type": "uint256"
        }
      ],
      "name": "Approval",
      "type": "event"
    },
    {
      "anonymous": false,
      "inputs": [
        {
          "indexed": true,
          "name": "from",
          "type": "address"
        },
        {
          "indexed": true,
          "name": "to",
          "type": "address"
        },
        {
          "indexed": false,
          "name": "value",
          "type": "uint256"
        }
      ],
      "name": "Transfer",
      "type": "event"
    }
  ],
  "bytecode": "0x606060405260038054600160b060020a03191633600160a060020a0316179055610e958061002e6000396000f3006060604052600436106101115763ffffffff7c010000000000000000000000000000000000000000000000000000000060003504166305d2035b811461011657806306fdde031461013d578063095ea7b3146101c757806318160ddd146101e957806323b872dd1461020e578063313ce567146102365780633f4ba83a1461025f57806340c10f191461027457806342966c68146102965780635c975abb146102ac57806366188463146102bf57806370a08231146102e15780637d64bcb4146103005780638456cb59146103135780638da5cb5b1461032657806395d89b4114610355578063a9059cbb14610368578063d73dd6231461038a578063dd62ed3e146103ac578063f2fde38b146103d1575b600080fd5b341561012157600080fd5b6101296103f0565b604051901515815260200160405180910390f35b341561014857600080fd5b610150610400565b60405160208082528190810183818151815260200191508051906020019080838360005b8381101561018c578082015183820152602001610174565b50505050905090810190601f1680156101b95780820380516001836020036101000a031916815260200191505b509250505060405180910390f35b34156101d257600080fd5b610129600160a060020a0360043516602435610437565b34156101f457600080fd5b6101fc610462565b60405190815260200160405180910390f35b341561021957600080fd5b610129600160a060020a0360043581169060243516604435610468565b341561024157600080fd5b610249610495565b60405160ff909116815260200160405180910390f35b341561026a57600080fd5b61027261049a565b005b341561027f57600080fd5b610129600160a060020a036004351660243561051a565b34156102a157600080fd5b610272600435610616565b34156102b757600080fd5b6101296106fd565b34156102ca57600080fd5b610129600160a060020a036004351660243561070d565b34156102ec57600080fd5b6101fc600160a060020a0360043516610731565b341561030b57600080fd5b61012961074c565b341561031e57600080fd5b6102726107d7565b341561033157600080fd5b61033961085c565b604051600160a060020a03909116815260200160405180910390f35b341561036057600080fd5b61015061086b565b341561037357600080fd5b610129600160a060020a03600435166024356108a2565b341561039557600080fd5b610129600160a060020a03600435166024356108c6565b34156103b757600080fd5b6101fc600160a060020a03600435811690602435166108ea565b34156103dc57600080fd5b610272600160a060020a0360043516610915565b60035460a060020a900460ff1681565b60408051908101604052600c81527f4172746572796578436f696e0000000000000000000000000000000000000000602082015281565b60035460009060a860020a900460ff161561045157600080fd5b61045b83836109b0565b9392505050565b60015490565b60035460009060a860020a900460ff161561048257600080fd5b61048d848484610a1c565b949350505050565b601281565b60035433600160a060020a039081169116146104b557600080fd5b60035460a860020a900460ff1615156104cd57600080fd5b6003805475ff000000000000000000000000000000000000000000191690557f7805862f689e2f13df9f062ff482ad3ad112aca9e0847911ed832e158c525b3360405160405180910390a1565b60035460009033600160a060020a0390811691161461053857600080fd5b60035460a060020a900460ff161561054f57600080fd5b600154610562908363ffffffff610b8a16565b600155600160a060020a03831660009081526020819052604090205461058e908363ffffffff610b8a16565b600160a060020a0384166000818152602081905260409081902092909255907f0f6798a560793a54c3bcfe86a93cde1e73087d944c0ea20544137d41213968859084905190815260200160405180910390a2600160a060020a0383166000600080516020610e4a8339815191528460405190815260200160405180910390a350600192915050565b600160a060020a03331660009081526020819052604081205482111561063b57600080fd5b5033600160a060020a0381166000908152602081905260409020546106609083610b99565b600160a060020a03821660009081526020819052604090205560015461068c908363ffffffff610b9916565b600155600160a060020a0381167fcc16f5dbb4873280815c1ee09dbd06736cffcc184412cf7a71a0fdb75d397ca58360405190815260200160405180910390a26000600160a060020a038216600080516020610e4a8339815191528460405190815260200160405180910390a35050565b60035460a860020a900460ff1681565b60035460009060a860020a900460ff161561072757600080fd5b61045b8383610bab565b600160a060020a031660009081526020819052604090205490565b60035460009033600160a060020a0390811691161461076a57600080fd5b60035460a060020a900460ff161561078157600080fd5b6003805474ff0000000000000000000000000000000000000000191660a060020a1790557fae5184fba832cb2b1f702aca6117b8d265eaf03ad33eb133f19dde0f5920fa0860405160405180910390a150600190565b60035433600160a060020a039081169116146107f257600080fd5b60035460a860020a900460ff161561080957600080fd5b6003805475ff000000000000000000000000000000000000000000191660a860020a1790557f6985a02210a168e66602d3235cb6db0e70f92b3ba4d376a33c0f3d9434bff62560405160405180910390a1565b600354600160a060020a031681565b60408051908101604052600381527f4158430000000000000000000000000000000000000000000000000000000000602082015281565b60035460009060a860020a900460ff16156108bc57600080fd5b61045b8383610ca5565b60035460009060a860020a900460ff16156108e057600080fd5b61045b8383610da5565b600160a060020a03918216600090815260026020908152604080832093909416825291909152205490565b60035433600160a060020a0390811691161461093057600080fd5b600160a060020a038116151561094557600080fd5b600354600160a060020a0380831691167f8be0079c531659141344cd1fd0a4f28419497f9722a3daafe3b4186f6b6457e060405160405180910390a36003805473ffffffffffffffffffffffffffffffffffffffff1916600160a060020a0392909216919091179055565b600160a060020a03338116600081815260026020908152604080832094871680845294909152808220859055909291907f8c5be1e5ebec7d5bd14f71427d1e84f3dd0314c0f7b2291e5b200ac8c7c3b9259085905190815260200160405180910390a350600192915050565b6000600160a060020a0383161515610a3357600080fd5b600160a060020a038416600090815260208190526040902054821115610a5857600080fd5b600160a060020a0380851660009081526002602090815260408083203390941683529290522054821115610a8b57600080fd5b600160a060020a038416600090815260208190526040902054610ab4908363ffffffff610b9916565b600160a060020a038086166000908152602081905260408082209390935590851681522054610ae9908363ffffffff610b8a16565b600160a060020a0380851660009081526020818152604080832094909455878316825260028152838220339093168252919091522054610b2f908363ffffffff610b9916565b600160a060020a0380861660008181526002602090815260408083203386168452909152908190209390935590851691600080516020610e4a8339815191529085905190815260200160405180910390a35060019392505050565b60008282018381101561045b57fe5b600082821115610ba557fe5b50900390565b600160a060020a03338116600090815260026020908152604080832093861683529290529081205480831115610c0857600160a060020a033381166000908152600260209081526040808320938816835292905290812055610c3f565b610c18818463ffffffff610b9916565b600160a060020a033381166000908152600260209081526040808320938916835292905220555b600160a060020a0333811660008181526002602090815260408083209489168084529490915290819020547f8c5be1e5ebec7d5bd14f71427d1e84f3dd0314c0f7b2291e5b200ac8c7c3b925915190815260200160405180910390a35060019392505050565b6000600160a060020a0383161515610cbc57600080fd5b600160a060020a033316600090815260208190526040902054821115610ce157600080fd5b600160a060020a033316600090815260208190526040902054610d0a908363ffffffff610b9916565b600160a060020a033381166000908152602081905260408082209390935590851681522054610d3f908363ffffffff610b8a16565b60008085600160a060020a0316600160a060020a031681526020019081526020016000208190555082600160a060020a031633600160a060020a0316600080516020610e4a8339815191528460405190815260200160405180910390a350600192915050565b600160a060020a033381166000908152600260209081526040808320938616835292905290812054610ddd908363ffffffff610b8a16565b600160a060020a0333811660008181526002602090815260408083209489168084529490915290819020849055919290917f8c5be1e5ebec7d5bd14f71427d1e84f3dd0314c0f7b2291e5b200ac8c7c3b92591905190815260200160405180910390a3506001929150505600ddf252ad1be2c89b69c2b068fc378daa952ba7f163c4a11628f55a4df523b3efa165627a7a72305820dfa394d16bdbe5b576af0d653bb93b4188b1c910db73844e36c7bca258640fb60029",
  "source": "pragma solidity ^0.4.18;\nimport \"zeppelin-solidity/contracts/token/ERC20/MintableToken.sol\";\nimport \"zeppelin-solidity/contracts/token/ERC20/BurnableToken.sol\";\nimport \"zeppelin-solidity/contracts/token/ERC20/PausableToken.sol\";\n\ncontract AXCToken is MintableToken, BurnableToken, PausableToken {\n  string public constant name = \"ArteryexCoin\";\n  string public constant symbol = \"AXC\";\n  uint8 public constant decimals = 18;\n}\n",
  "sourcePath": "/Users/sh-tatsuno/Desktop/program/eth/arteryx-tokens/contracts/AXCToken.sol",
  "compiler": {
    "name": "solc",
    "version": "0.4.19+commit.c4cbbb05.Emscripten.clang"
  },
  "schemaVersion": "2.0.0",
  "updatedAt": "2018-05-01T12:46:22.075Z"
}