{
  "contractName": "AXCToken",
  "abi": [
    {
      "constant": true,
      "inputs": [],
      "name": "mintingFinished",
      "outputs": [
        {
          "name": "",
          "type": "bool"
        }
      ],
      "payable": false,
      "stateMutability": "view",
      "type": "function"
    },
    {
      "constant": true,
      "inputs": [],
      "name": "name",
      "outputs": [
        {
          "name": "",
          "type": "string"
        }
      ],
      "payable": false,
      "stateMutability": "view",
      "type": "function"
    },
    {
      "constant": false,
      "inputs": [
        {
          "name": "_spender",
          "type": "address"
        },
        {
          "name": "_value",
          "type": "uint256"
        }
      ],
      "name": "approve",
      "outputs": [
        {
          "name": "",
          "type": "bool"
        }
      ],
      "payable": false,
      "stateMutability": "nonpayable",
      "type": "function"
    },
    {
      "constant": true,
      "inputs": [],
      "name": "totalSupply",
      "outputs": [
        {
          "name": "",
          "type": "uint256"
        }
      ],
      "payable": false,
      "stateMutability": "view",
      "type": "function"
    },
    {
      "constant": false,
      "inputs": [
        {
          "name": "_from",
          "type": "address"
        },
        {
          "name": "_to",
          "type": "address"
        },
        {
          "name": "_value",
          "type": "uint256"
        }
      ],
      "name": "transferFrom",
      "outputs": [
        {
          "name": "",
          "type": "bool"
        }
      ],
      "payable": false,
      "stateMutability": "nonpayable",
      "type": "function"
    },
    {
      "constant": true,
      "inputs": [],
      "name": "decimals",
      "outputs": [
        {
          "name": "",
          "type": "uint8"
        }
      ],
      "payable": false,
      "stateMutability": "view",
      "type": "function"
    },
    {
      "constant": true,
      "inputs": [],
      "name": "cap",
      "outputs": [
        {
          "name": "",
          "type": "uint256"
        }
      ],
      "payable": false,
      "stateMutability": "view",
      "type": "function"
    },
    {
      "constant": false,
      "inputs": [],
      "name": "unpause",
      "outputs": [],
      "payable": false,
      "stateMutability": "nonpayable",
      "type": "function"
    },
    {
      "constant": false,
      "inputs": [
        {
          "name": "_to",
          "type": "address"
        },
        {
          "name": "_amount",
          "type": "uint256"
        }
      ],
      "name": "mint",
      "outputs": [
        {
          "name": "",
          "type": "bool"
        }
      ],
      "payable": false,
      "stateMutability": "nonpayable",
      "type": "function"
    },
    {
      "constant": false,
      "inputs": [
        {
          "name": "_value",
          "type": "uint256"
        }
      ],
      "name": "burn",
      "outputs": [],
      "payable": false,
      "stateMutability": "nonpayable",
      "type": "function"
    },
    {
      "constant": true,
      "inputs": [],
      "name": "paused",
      "outputs": [
        {
          "name": "",
          "type": "bool"
        }
      ],
      "payable": false,
      "stateMutability": "view",
      "type": "function"
    },
    {
      "constant": false,
      "inputs": [
        {
          "name": "_spender",
          "type": "address"
        },
        {
          "name": "_subtractedValue",
          "type": "uint256"
        }
      ],
      "name": "decreaseApproval",
      "outputs": [
        {
          "name": "success",
          "type": "bool"
        }
      ],
      "payable": false,
      "stateMutability": "nonpayable",
      "type": "function"
    },
    {
      "constant": true,
      "inputs": [
        {
          "name": "_owner",
          "type": "address"
        }
      ],
      "name": "balanceOf",
      "outputs": [
        {
          "name": "balance",
          "type": "uint256"
        }
      ],
      "payable": false,
      "stateMutability": "view",
      "type": "function"
    },
    {
      "constant": false,
      "inputs": [],
      "name": "finishMinting",
      "outputs": [
        {
          "name": "",
          "type": "bool"
        }
      ],
      "payable": false,
      "stateMutability": "nonpayable",
      "type": "function"
    },
    {
      "constant": false,
      "inputs": [],
      "name": "pause",
      "outputs": [],
      "payable": false,
      "stateMutability": "nonpayable",
      "type": "function"
    },
    {
      "constant": true,
      "inputs": [],
      "name": "owner",
      "outputs": [
        {
          "name": "",
          "type": "address"
        }
      ],
      "payable": false,
      "stateMutability": "view",
      "type": "function"
    },
    {
      "constant": true,
      "inputs": [],
      "name": "symbol",
      "outputs": [
        {
          "name": "",
          "type": "string"
        }
      ],
      "payable": false,
      "stateMutability": "view",
      "type": "function"
    },
    {
      "constant": false,
      "inputs": [
        {
          "name": "_to",
          "type": "address"
        },
        {
          "name": "_value",
          "type": "uint256"
        }
      ],
      "name": "transfer",
      "outputs": [
        {
          "name": "",
          "type": "bool"
        }
      ],
      "payable": false,
      "stateMutability": "nonpayable",
      "type": "function"
    },
    {
      "constant": false,
      "inputs": [
        {
          "name": "_spender",
          "type": "address"
        },
        {
          "name": "_addedValue",
          "type": "uint256"
        }
      ],
      "name": "increaseApproval",
      "outputs": [
        {
          "name": "success",
          "type": "bool"
        }
      ],
      "payable": false,
      "stateMutability": "nonpayable",
      "type": "function"
    },
    {
      "constant": true,
      "inputs": [
        {
          "name": "_owner",
          "type": "address"
        },
        {
          "name": "_spender",
          "type": "address"
        }
      ],
      "name": "allowance",
      "outputs": [
        {
          "name": "",
          "type": "uint256"
        }
      ],
      "payable": false,
      "stateMutability": "view",
      "type": "function"
    },
    {
      "constant": false,
      "inputs": [
        {
          "name": "newOwner",
          "type": "address"
        }
      ],
      "name": "transferOwnership",
      "outputs": [],
      "payable": false,
      "stateMutability": "nonpayable",
      "type": "function"
    },
    {
      "inputs": [
        {
          "name": "_cap",
          "type": "uint256"
        }
      ],
      "payable": false,
      "stateMutability": "nonpayable",
      "type": "constructor"
    },
    {
      "anonymous": false,
      "inputs": [],
      "name": "Pause",
      "type": "event"
    },
    {
      "anonymous": false,
      "inputs": [],
      "name": "Unpause",
      "type": "event"
    },
    {
      "anonymous": false,
      "inputs": [
        {
          "indexed": true,
          "name": "burner",
          "type": "address"
        },
        {
          "indexed": false,
          "name": "value",
          "type": "uint256"
        }
      ],
      "name": "Burn",
      "type": "event"
    },
    {
      "anonymous": false,
      "inputs": [
        {
          "indexed": true,
          "name": "to",
          "type": "address"
        },
        {
          "indexed": false,
          "name": "amount",
          "type": "uint256"
        }
      ],
      "name": "Mint",
      "type": "event"
    },
    {
      "anonymous": false,
      "inputs": [],
      "name": "MintFinished",
      "type": "event"
    },
    {
      "anonymous": false,
      "inputs": [
        {
          "indexed": true,
          "name": "previousOwner",
          "type": "address"
        },
        {
          "indexed": true,
          "name": "newOwner",
          "type": "address"
        }
      ],
      "name": "OwnershipTransferred",
      "type": "event"
    },
    {
      "anonymous": false,
      "inputs": [
        {
          "indexed": true,
          "name": "owner",
          "type": "address"
        },
        {
          "indexed": true,
          "name": "spender",
          "type": "address"
        },
        {
          "indexed": false,
          "name": "value",
          "type": "uint256"
        }
      ],
      "name": "Approval",
      "type": "event"
    },
    {
      "anonymous": false,
      "inputs": [
        {
          "indexed": true,
          "name": "from",
          "type": "address"
        },
        {
          "indexed": true,
          "name": "to",
          "type": "address"
        },
        {
          "indexed": false,
          "name": "value",
          "type": "uint256"
        }
      ],
      "name": "Transfer",
      "type": "event"
    }
  ],
  "bytecode": "0x60606040526003805460a060020a60ff02191690556005805460ff19169055341561002957600080fd5b604051602080610f308339810160405280805160038054600160a060020a03191633600160a060020a031617905591508190506000811161006957600080fd5b60045550610eb48061007c6000396000f30060606040526004361061011c5763ffffffff7c010000000000000000000000000000000000000000000000000000000060003504166305d2035b811461012157806306fdde0314610148578063095ea7b3146101d257806318160ddd146101f457806323b872dd14610219578063313ce56714610241578063355274ea1461026a5780633f4ba83a1461027d57806340c10f191461029257806342966c68146102b45780635c975abb146102ca57806366188463146102dd57806370a08231146102ff5780637d64bcb41461031e5780638456cb59146103315780638da5cb5b1461034457806395d89b4114610373578063a9059cbb14610386578063d73dd623146103a8578063dd62ed3e146103ca578063f2fde38b146103ef575b600080fd5b341561012c57600080fd5b61013461040e565b604051901515815260200160405180910390f35b341561015357600080fd5b61015b61041e565b60405160208082528190810183818151815260200191508051906020019080838360005b8381101561019757808201518382015260200161017f565b50505050905090810190601f1680156101c45780820380516001836020036101000a031916815260200191505b509250505060405180910390f35b34156101dd57600080fd5b610134600160a060020a0360043516602435610455565b34156101ff57600080fd5b610207610479565b60405190815260200160405180910390f35b341561022457600080fd5b610134600160a060020a036004358116906024351660443561047f565b341561024c57600080fd5b6102546104a5565b60405160ff909116815260200160405180910390f35b341561027557600080fd5b6102076104aa565b341561028857600080fd5b6102906104b0565b005b341561029d57600080fd5b610134600160a060020a0360043516602435610514565b34156102bf57600080fd5b610290600435610574565b34156102d557600080fd5b61013461065b565b34156102e857600080fd5b610134600160a060020a0360043516602435610664565b341561030a57600080fd5b610207600160a060020a0360043516610681565b341561032957600080fd5b61013461069c565b341561033c57600080fd5b610290610727565b341561034f57600080fd5b61035761078d565b604051600160a060020a03909116815260200160405180910390f35b341561037e57600080fd5b61015b61079c565b341561039157600080fd5b610134600160a060020a03600435166024356107d3565b34156103b357600080fd5b610134600160a060020a03600435166024356107f0565b34156103d557600080fd5b610207600160a060020a036004358116906024351661080d565b34156103fa57600080fd5b610290600160a060020a0360043516610838565b60035460a060020a900460ff1681565b60408051908101604052600c81527f4172746572796578436f696e0000000000000000000000000000000000000000602082015281565b60055460009060ff161561046857600080fd5b61047283836108d3565b9392505050565b60015490565b60055460009060ff161561049257600080fd5b61049d84848461093f565b949350505050565b601281565b60045481565b60035433600160a060020a039081169116146104cb57600080fd5b60055460ff1615156104dc57600080fd5b6005805460ff191690557f7805862f689e2f13df9f062ff482ad3ad112aca9e0847911ed832e158c525b3360405160405180910390a1565b60035460009033600160a060020a0390811691161461053257600080fd5b60035460a060020a900460ff161561054957600080fd5b60045460015461055f908463ffffffff610aad16565b111561056a57600080fd5b6104728383610abc565b600160a060020a03331660009081526020819052604081205482111561059957600080fd5b5033600160a060020a0381166000908152602081905260409020546105be9083610bb8565b600160a060020a0382166000908152602081905260409020556001546105ea908363ffffffff610bb816565b600155600160a060020a0381167fcc16f5dbb4873280815c1ee09dbd06736cffcc184412cf7a71a0fdb75d397ca58360405190815260200160405180910390a26000600160a060020a038216600080516020610e698339815191528460405190815260200160405180910390a35050565b60055460ff1681565b60055460009060ff161561067757600080fd5b6104728383610bca565b600160a060020a031660009081526020819052604090205490565b60035460009033600160a060020a039081169116146106ba57600080fd5b60035460a060020a900460ff16156106d157600080fd5b6003805474ff0000000000000000000000000000000000000000191660a060020a1790557fae5184fba832cb2b1f702aca6117b8d265eaf03ad33eb133f19dde0f5920fa0860405160405180910390a150600190565b60035433600160a060020a0390811691161461074257600080fd5b60055460ff161561075257600080fd5b6005805460ff191660011790557f6985a02210a168e66602d3235cb6db0e70f92b3ba4d376a33c0f3d9434bff62560405160405180910390a1565b600354600160a060020a031681565b60408051908101604052600381527f4158430000000000000000000000000000000000000000000000000000000000602082015281565b60055460009060ff16156107e657600080fd5b6104728383610cc4565b60055460009060ff161561080357600080fd5b6104728383610dc4565b600160a060020a03918216600090815260026020908152604080832093909416825291909152205490565b60035433600160a060020a0390811691161461085357600080fd5b600160a060020a038116151561086857600080fd5b600354600160a060020a0380831691167f8be0079c531659141344cd1fd0a4f28419497f9722a3daafe3b4186f6b6457e060405160405180910390a36003805473ffffffffffffffffffffffffffffffffffffffff1916600160a060020a0392909216919091179055565b600160a060020a03338116600081815260026020908152604080832094871680845294909152808220859055909291907f8c5be1e5ebec7d5bd14f71427d1e84f3dd0314c0f7b2291e5b200ac8c7c3b9259085905190815260200160405180910390a350600192915050565b6000600160a060020a038316151561095657600080fd5b600160a060020a03841660009081526020819052604090205482111561097b57600080fd5b600160a060020a03808516600090815260026020908152604080832033909416835292905220548211156109ae57600080fd5b600160a060020a0384166000908152602081905260409020546109d7908363ffffffff610bb816565b600160a060020a038086166000908152602081905260408082209390935590851681522054610a0c908363ffffffff610aad16565b600160a060020a0380851660009081526020818152604080832094909455878316825260028152838220339093168252919091522054610a52908363ffffffff610bb816565b600160a060020a0380861660008181526002602090815260408083203386168452909152908190209390935590851691600080516020610e698339815191529085905190815260200160405180910390a35060019392505050565b60008282018381101561047257fe5b60035460009033600160a060020a03908116911614610ada57600080fd5b60035460a060020a900460ff1615610af157600080fd5b600154610b04908363ffffffff610aad16565b600155600160a060020a038316600090815260208190526040902054610b30908363ffffffff610aad16565b600160a060020a0384166000818152602081905260409081902092909255907f0f6798a560793a54c3bcfe86a93cde1e73087d944c0ea20544137d41213968859084905190815260200160405180910390a2600160a060020a0383166000600080516020610e698339815191528460405190815260200160405180910390a350600192915050565b600082821115610bc457fe5b50900390565b600160a060020a03338116600090815260026020908152604080832093861683529290529081205480831115610c2757600160a060020a033381166000908152600260209081526040808320938816835292905290812055610c5e565b610c37818463ffffffff610bb816565b600160a060020a033381166000908152600260209081526040808320938916835292905220555b600160a060020a0333811660008181526002602090815260408083209489168084529490915290819020547f8c5be1e5ebec7d5bd14f71427d1e84f3dd0314c0f7b2291e5b200ac8c7c3b925915190815260200160405180910390a35060019392505050565b6000600160a060020a0383161515610cdb57600080fd5b600160a060020a033316600090815260208190526040902054821115610d0057600080fd5b600160a060020a033316600090815260208190526040902054610d29908363ffffffff610bb816565b600160a060020a033381166000908152602081905260408082209390935590851681522054610d5e908363ffffffff610aad16565b60008085600160a060020a0316600160a060020a031681526020019081526020016000208190555082600160a060020a031633600160a060020a0316600080516020610e698339815191528460405190815260200160405180910390a350600192915050565b600160a060020a033381166000908152600260209081526040808320938616835292905290812054610dfc908363ffffffff610aad16565b600160a060020a0333811660008181526002602090815260408083209489168084529490915290819020849055919290917f8c5be1e5ebec7d5bd14f71427d1e84f3dd0314c0f7b2291e5b200ac8c7c3b92591905190815260200160405180910390a3506001929150505600ddf252ad1be2c89b69c2b068fc378daa952ba7f163c4a11628f55a4df523b3efa165627a7a723058204e2c4be1b82b99e3774abade210ec2722d9abb4d05fd21f7608f9e033aef162d0029",
  "source": "pragma solidity ^0.4.18;\nimport \"zeppelin-solidity/contracts/token/ERC20/CappedToken.sol\";\nimport \"zeppelin-solidity/contracts/token/ERC20/BurnableToken.sol\";\nimport \"zeppelin-solidity/contracts/token/ERC20/PausableToken.sol\";\n\ncontract AXCToken is CappedToken, BurnableToken, PausableToken {\n  string public constant name = \"ArteryexCoin\";\n  string public constant symbol = \"AXC\";\n  uint8 public constant decimals = 18;\n\n  function AXCToken(uint256 _cap) public\n  CappedToken(_cap)\n  {\n  }\n\n}\n",
  "sourcePath": "/Users/sh-tatsuno/Desktop/program/eth/arteryx-tokens/contracts/AXCToken.sol",
  "compiler": {
    "name": "solc",
    "version": "0.4.19+commit.c4cbbb05.Emscripten.clang"
  },
  "schemaVersion": "2.0.0",
  "updatedAt": "2018-05-05T08:50:52.395Z"
}